:020000040800F2
:10000000700600206D0100087501000877010008E6
:10001000790100087B0100087D0100080000000054
:100020000000000000000000000000007F01000848
:10003000810100080000000083010008850100081C
:100040008701000887010008870100088701000870
:100050008701000887010008870100088701000860
:100060008701000887010008870100088701000850
:100070008701000887010008870100088701000840
:100080008701000887010008870100088701000830
:100090008701000887010008870100088701000820
:1000A0008701000887010008870100088701000810
:1000B0004507000879070008870100088701000844
:1000C00087010008870100088701000887010008F0
:1000D00087010008870100088701000887010008E0
:1000E00087010008870100088701000800F002F876
:1000F00000F02CF80AA090E8000C82448344AAF196
:100100000107DA4501D100F021F8AFF2090EBAE893
:100110000F0013F0010F18BFFB1A43F0010318473B
:100120005C0B00006C0B000000230024002500265F
:10013000103A28BF78C1FBD8520728BF30C148BF4A
:100140000B6070471FB51FBD10B510BD00F031F832
:100150001146FFF7F7FF00F0C5FC00F04FF803B4BD
:10016000FFF7F2FF03BC00F057F800000948804792
:1001700009480047FEE7FEE7FEE7FEE7FEE7FEE789
:10018000FEE7FEE7FEE7FEE704480549054A064BA1
:1001900070470000B1040008ED0000087000002066
:1001A0007006002070020020700200207047704727
:1001B0007047754600F02CF8AE4605006946534678
:1001C00020F00700854618B020B5FFF7DDFFBDE839
:1001D00020404FF000064FF000074FF000084FF0AE
:1001E000000BAC46ACE8C009ACE8C009ACE8C009FB
:1001F000ACE8C00921F007018D46704710B50446F0
:10020000AFF300802046BDE81040FFF7A8BF000014
:10021000004870470000002001491820ABBEFEE7EF
:1002200026000200704700002DE9F04391F803E03A
:100230000EF00F0C1EF0100F1CBF8A784CEA020C57
:10024000098811F0FF0F20D0026800234FF0010948
:100250004FF00F08002600BF09FA06F70F420FD033
:100260000CFA03F508FA03F4A2432A43BEF1480F3F
:1002700004D0BEF1280F08BF476101E0076100BF4D
:1002800004330136082EE7D10260B1F5807F38BF14
:10029000BDE8F0834368082200244FF001094FF0C5
:1002A0000F0800BF09FA02F70F420FD00CFA04F64C
:1002B00008FA04F5AB433343BEF1480F04D0BEF156
:1002C000280F08BF476101E0076100BF0434013215
:1002D000102AE7D14360BDE8F0830000B0B540F2DA
:1002E000040EC4F2010E00287246B8BF183213681B
:1002F0001FFA80FCC0F3034400F44015B5F5401F1D
:1003000009D1DEF8004024F07064CEF8004023F0FC
:10031000706379B915E0C50206D447F6F07505EAB1
:1003200050450CFA05F501E00325A540AB4343F029
:10033000706331B147F6F07101EA50400CFA00F0F9
:1003400003431360B0BD0000416170470161704715
:10035000C2784EF20011CEF20001EAB110B54EF6AD
:100360000C52CEF200021268072323EA12220F2356
:10037000D34090F800C090F801E084782340C2F1A7
:1003800004020EFA02F21A43120101EB0C0383F885
:100390000023BDE8104000E08031007800F01F022B
:1003A000012303FA02F2C0F3421041F82020704703
:1003B00041F21C02C4F20202002911680CBF21EABA
:1003C000000008431060704741F21802C4F20202B4
:1003D000002911680CBF21EA000008431060704733
:1003E000AFF3008082B000200190009041F2040041
:1003F000C4F2020050F8041C41F4803140F8041C9F
:1004000050F8041C01F4003100910199013101916F
:10041000009919B90199B1F5A06FF1D150F8041CF8
:1004200011F4003F0CBF0021012100910099012926
:100430003BD1D0F8FC1F41F01001C0F8FC1FD0F8F0
:10044000FC1F21F00301C0F8FC1FD0F8FC1F41F095
:100450000201C0F8FC1F01680160016801600168C9
:1004600041F480610160016821F47C110160016840
:1004700041F4E811016050F8041C41F0807140F82B
:10048000041C00BF50F8041C11F0007FFAD0016872
:1004900021F003010160016841F00201016000BF29
:1004A000016801F00C010829FAD102B07047000080
:1004B00080B541F20000C4F20200016841F0010180
:1004C000016041680022CFF6FF02114041600168DF
:1004D0004FF6FF72CFF6F66211400160016821F419
:1004E00080210160416821F4FE0141604FF41F0149
:1004F0008160FFF775FF4EF60850CEF200004FF016
:100500000061016080BD000080B5B0F820C02CF013
:10051000010CA0F820C042EA0312038B23F0F3037E
:1005200042EA030CB0F820E04FF6F57240F6FF33D4
:10053000C4F2000398420DDCB0F1804F1FD040F2AE
:100540000043C4F20003984219D040F60003C4F2FD
:1005500000030FE040F60043C4F2000398420ED0BF
:1005600043F20043C4F20103984208D042F600432C
:10057000C4F20103984208BF4FF6FD7201E04FF646
:10058000FD72A0F818C002EA0E02114341F0010109
:10059000018480BDB0F820C02CF0100CA0F820C061
:1005A0001B0343EA022C038B40F6FF421A404CEA3D
:1005B000020C038C40F6FF32C4F2000290420FDCC2
:1005C000B0F1804F1ED040F20042C4F200029042CF
:1005D00018D040F60002C4F20002904212D01EE091
:1005E00040F60042C4F2000290420BD043F20042B7
:1005F000C4F20102904205D042F60042C4F2010268
:1006000090420CD14FF6E07202EA011123F0300360
:10061000A0F818C0194341F010010184704723F07D
:10062000B003F5E7B0F820C02CF4807CA0F820C01F
:1006300042EA0312838B23F0F30342EA030C038C98
:1006400040F6FF32C4F2000290420FDCB0F1804F5E
:100650001ED040F20042C4F20002904218D040F690
:100660000002C4F20002904212D01EE040F60042A6
:10067000C4F2000290420BD043F20042C4F20102E5
:10068000904205D042F60042C4F2010290420CD1E1
:100690004FF47E4202EA012123F44073A0F81CC00B
:1006A000194341F480710184704723F43063F5E706
:1006B000B0F820C02CF4805CA0F820C01B0343EAF3
:1006C000022C838B40F6FF421A404CEA020C038C4A
:1006D00040F6FF32C4F2000290420FDCB0F1804FCE
:1006E0001ED040F20042C4F20002904218D040F600
:1006F0000002C4F20002904212D01EE040F6004216
:10070000C4F2000290420BD043F20042C4F2010254
:10071000904205D042F60042C4F2010290420CD150
:100720004FF4604202EA013123F44053A0F81CC0A8
:10073000194341F480510184704746F6FF5213403B
:10074000F4E7000080B540F60000C4F20100042187
:10075000FFF7FAFD40F26800C2F2000000210180BC
:100760004FF08040012100F077F84FF080400021E9
:10077000BDE8804000F074B8B0B540F20044C4F267
:1007800000042046042100F085F801283AD104F540
:10079000823528464FF40061FFF7D6FD204600F071
:1007A00077F840F26401C2F200010A8800230B804E
:1007B00040F26601C2F200010B88088000EB0220C3
:1007C000C01A4FF47A3191FBF0F040F26201C2F2AC
:1007D0000001088080B265282FD340F26800C2F281
:1007E00000000188002918BFB0BD01210180284602
:1007F0000421FFF7ABFD4FF080400121BDE8B04080
:1008000000F02EB82046022100F044F8012815D14E
:10081000204600F03BF840F26401C2F20001098872
:1008200000EB012040F26601C2F200010988401A83
:1008300040F26001C2F200010880B0BD40F26400E5
:10084000C2F2000001880131018020460121BDE88B
:10085000B04000F001B80000C943018270470000B9
:10086000028842F00103002908BF22F0010303803F
:1008700070470000B0F8442013466FF3DF330029BF
:1008800018BF42F40043A0F844307047808E704790
:10089000008F7047008A084018BF01207047000091
:1008A000B0B50D460446288804280CD0B8B92B8969
:1008B000AA8869882046FFF727FEE9882046BDE818
:1008C000B04000F06BB82B89AA8869882046FFF7F2
:1008D00061FEE9882046BDE8B04000F067B82B898A
:1008E000AA886988082808D12046FFF79BFEE98876
:1008F0002046BDE8B04000F063B82046FFF7D8FEC0
:10090000E9882046BDE8B04000F062B8002A30F81F
:100910000C2F0CBF22EA0101114301807047000037
:1009200010B5028C22F010020284048CB0F804E0AE
:10093000038B0A8823F4E64343EA022C24F02002C6
:100940000B8942EA03124B8842EA031243F2004346
:10095000C4F20103984205D042F60043C4F20103F9
:10096000984213D14FF63F731A404B894FF6B0743B
:1009700004EA03131A438B8842EA03128B892EF48C
:10098000406444EA8303CC8943EA840EA0F804E07F
:10099000A0F818C0C9880187028410BD028B22F01C
:1009A0000C020283028B114301837047028B22F4F5
:1009B00040620283028B42EA0121018370470000FA
:1009C000828B22F00C028283828B114381837047D9
:1009D000828B22F440628283828B42EA01218183EE
:1009E00070470000B0F800C040F6FF33C4F20003C7
:1009F00098420FDCB0F1804F1ED040F20043C4F2A9
:100A00000003984218D040F60003C4F20003984255
:100A100012D016E040F60043C4F2000398420BD017
:100A200043F20043C4F20103984205D042F600436A
:100A3000C4F20103984204D12CF070024B8843EABF
:100A4000020C40F4806341F20042C4F2000293427F
:100A500004D02CF44072CB8843EA020CA0F800C00A
:100A60008A8882850A880285A0F18042A2F59632A2
:100A70004FEAB222072A07D8012303FA02F212F042
:100A8000E50F1CBF097A01860121818270470000B1
:100A9000028A0B8822F470621A434B881A438B88AF
:100AA0001A43C988114301827047000080B501F0E4
:100AB000E00C4FF0020E1423BEEB5C1F08BF1023A6
:100AC0004FF0010EBEEB5C1F08BF0C2301F01F01AD
:100AD0000EFA01F1002AC2580CBF22EA01011143AB
:100AE000C15080BD2DE9F04F8FB04FF0010940F6A5
:100AF00004000121FFF768FC0320C0F2020001217D
:100B0000FFF756FC01200121FFF75EFC40F20020B8
:100B1000C0F230000121FFF7E1FB48F20000C1F212
:100B20000200049040F60004C4F2010404AD204623
:100B30002946FFF779FB20464FF40041FFF704FCFC
:100B40008020C0F20240049020462946FFF76CFB4B
:100B500042F60400C1F20200049020462946FFF745
:100B600063FB40F20020C1F60200049020462946B3
:100B7000FFF75AFB4FF0000ACDE900AAA4F544485C
:100B800069464046FFF784FF1D20C0F20010039025
:100B900003AD2846FFF7DCFB1C208DF80C004FF05E
:100BA000020B8DF80EB02846FFF7D2FB77200C9091
:100BB00063200D9004F510560CAD30462946FFF722
:100BC00011FF6020C0F2010008902A20CDF8260015
:100BD00008A93046FFF7A4FE40F257200C9042F2DD
:100BE0000F700D904FF080402946FFF7FBFE162056
:100BF0000C90FF200D90A4F5823738462946FFF768
:100C0000F1FE0420CDE90509ADF81CA005AD38467C
:100C10002946FFF745FEADF818B04FF400300590B7
:100C200038462946FFF73CFE384607210122FFF7E8
:100C30006DFE4FF0804001210122FFF767FE304634
:100C40000121FFF717FE38460121FFF709FE304664
:100C50000121FFF705FE404640F226610122FFF721
:100C600025FF00BF20464FF40051FFF76FFB2046E1
:100C70004FF40061FFF76AFBF4E700008C0C0008FA
:0C0C8000000000207006000028010008A1
:040000050800016D81
:00000001FF
